{
  "_format": "hh-sol-artifact-1",
  "contractName": "OGRatsWall",
  "sourceName": "contracts/OGRatsWall.sol",
  "abi": [
    {
      "inputs": [
        {
          "internalType": "address",
          "name": "_ogRatsNFTAddress",
          "type": "address"
        }
      ],
      "stateMutability": "nonpayable",
      "type": "constructor"
    },
    {
      "anonymous": false,
      "inputs": [
        {
          "indexed": true,
          "internalType": "uint256",
          "name": "id",
          "type": "uint256"
        },
        {
          "indexed": true,
          "internalType": "address",
          "name": "sender",
          "type": "address"
        },
        {
          "indexed": false,
          "internalType": "string",
          "name": "message",
          "type": "string"
        },
        {
          "indexed": false,
          "internalType": "uint256",
          "name": "timestamp",
          "type": "uint256"
        }
      ],
      "name": "MessagePosted",
      "type": "event"
    },
    {
      "inputs": [],
      "name": "getMessages",
      "outputs": [
        {
          "components": [
            {
              "internalType": "uint256",
              "name": "id",
              "type": "uint256"
            },
            {
              "internalType": "address",
              "name": "sender",
              "type": "address"
            },
            {
              "internalType": "string",
              "name": "message",
              "type": "string"
            },
            {
              "internalType": "uint256",
              "name": "timestamp",
              "type": "uint256"
            }
          ],
          "internalType": "struct OGRatsWall.Message[]",
          "name": "",
          "type": "tuple[]"
        }
      ],
      "stateMutability": "view",
      "type": "function"
    },
    {
      "inputs": [],
      "name": "getTotalMessages",
      "outputs": [
        {
          "internalType": "uint256",
          "name": "",
          "type": "uint256"
        }
      ],
      "stateMutability": "view",
      "type": "function"
    },
    {
      "inputs": [],
      "name": "ogRatsNFT",
      "outputs": [
        {
          "internalType": "contract IERC721",
          "name": "",
          "type": "address"
        }
      ],
      "stateMutability": "view",
      "type": "function"
    },
    {
      "inputs": [
        {
          "internalType": "string",
          "name": "_message",
          "type": "string"
        }
      ],
      "name": "postMessage",
      "outputs": [],
      "stateMutability": "nonpayable",
      "type": "function"
    }
  ],
  "bytecode": "0x60a06040523480156200001157600080fd5b50604051620010fa380380620010fa83398181016040528101906200003791906200014e565b600073ffffffffffffffffffffffffffffffffffffffff168173ffffffffffffffffffffffffffffffffffffffff1603620000a9576040517f08c379a0000000000000000000000000000000000000000000000000000000008152600401620000a090620001e1565b60405180910390fd5b8073ffffffffffffffffffffffffffffffffffffffff1660808173ffffffffffffffffffffffffffffffffffffffff16815250505062000203565b600080fd5b600073ffffffffffffffffffffffffffffffffffffffff82169050919050565b60006200011682620000e9565b9050919050565b620001288162000109565b81146200013457600080fd5b50565b60008151905062000148816200011d565b92915050565b600060208284031215620001675762000166620000e4565b5b6000620001778482850162000137565b91505092915050565b600082825260208201905092915050565b7f496e76616c6964204e4654206164647265737300000000000000000000000000600082015250565b6000620001c960138362000180565b9150620001d68262000191565b602082019050919050565b60006020820190508181036000830152620001fc81620001ba565b9050919050565b608051610ed5620002256000396000818160d501526102e40152610ed56000f3fe608060405234801561001057600080fd5b506004361061004c5760003560e01c8063147e91081461005157806316f45b9d1461006f5780635ff6cbf31461008d5780636630f88f146100ab575b600080fd5b6100596100c7565b6040516100669190610567565b60405180910390f35b6100776100d3565b6040516100849190610601565b60405180910390f35b6100956100f7565b6040516100a29190610801565b60405180910390f35b6100c560048036038101906100c09190610892565b610252565b005b60008080549050905090565b7f000000000000000000000000000000000000000000000000000000000000000081565b60606000805480602002602001604051908101604052809291908181526020016000905b828210156102495783829060005260206000209060040201604051806080016040529081600082015481526020016001820160009054906101000a900473ffffffffffffffffffffffffffffffffffffffff1673ffffffffffffffffffffffffffffffffffffffff1673ffffffffffffffffffffffffffffffffffffffff1681526020016002820180546101ae9061090e565b80601f01602080910402602001604051908101604052809291908181526020018280546101da9061090e565b80156102275780601f106101fc57610100808354040283529160200191610227565b820191906000526020600020905b81548152906001019060200180831161020a57829003601f168201915b505050505081526020016003820154815250508152602001906001019061011b565b50505050905090565b60008282905011610298576040517f08c379a000000000000000000000000000000000000000000000000000000000815260040161028f9061099c565b60405180910390fd5b6101188282905011156102e0576040517f08c379a00000000000000000000000000000000000000000000000000000000081526004016102d790610a08565b60405180910390fd5b60007f000000000000000000000000000000000000000000000000000000000000000073ffffffffffffffffffffffffffffffffffffffff166370a08231336040518263ffffffff1660e01b815260040161033b9190610a37565b602060405180830381865afa158015610358573d6000803e3d6000fd5b505050506040513d601f19601f8201168201806040525081019061037c9190610a7e565b116103bc576040517f08c379a00000000000000000000000000000000000000000000000000000000081526004016103b390610af7565b60405180910390fd5b6000604051806080016040528060015481526020013373ffffffffffffffffffffffffffffffffffffffff16815260200184848080601f016020809104026020016040519081016040528093929190818152602001838380828437600081840152601f19601f82011690508083019250505050505050815260200142815250905060008190806001815401808255809150506001900390600052602060002090600402016000909190919091506000820151816000015560208201518160010160006101000a81548173ffffffffffffffffffffffffffffffffffffffff021916908373ffffffffffffffffffffffffffffffffffffffff16021790555060408201518160020190816104cf9190610ce8565b506060820151816003015550503373ffffffffffffffffffffffffffffffffffffffff166001547f7513fc6c2eeb2183417112a7961c7bf7a50939d641eca9a16e5e23e03462b17185854260405161052993929190610df6565b60405180910390a36001600081548092919061054490610e57565b9190505550505050565b6000819050919050565b6105618161054e565b82525050565b600060208201905061057c6000830184610558565b92915050565b600073ffffffffffffffffffffffffffffffffffffffff82169050919050565b6000819050919050565b60006105c76105c26105bd84610582565b6105a2565b610582565b9050919050565b60006105d9826105ac565b9050919050565b60006105eb826105ce565b9050919050565b6105fb816105e0565b82525050565b600060208201905061061660008301846105f2565b92915050565b600081519050919050565b600082825260208201905092915050565b6000819050602082019050919050565b6106518161054e565b82525050565b600061066282610582565b9050919050565b61067281610657565b82525050565b600081519050919050565b600082825260208201905092915050565b60005b838110156106b2578082015181840152602081019050610697565b60008484015250505050565b6000601f19601f8301169050919050565b60006106da82610678565b6106e48185610683565b93506106f4818560208601610694565b6106fd816106be565b840191505092915050565b60006080830160008301516107206000860182610648565b5060208301516107336020860182610669565b506040830151848203604086015261074b82826106cf565b91505060608301516107606060860182610648565b508091505092915050565b60006107778383610708565b905092915050565b6000602082019050919050565b60006107978261061c565b6107a18185610627565b9350836020820285016107b385610638565b8060005b858110156107ef57848403895281516107d0858261076b565b94506107db8361077f565b925060208a019950506001810190506107b7565b50829750879550505050505092915050565b6000602082019050818103600083015261081b818461078c565b905092915050565b600080fd5b600080fd5b600080fd5b600080fd5b600080fd5b60008083601f8401126108525761085161082d565b5b8235905067ffffffffffffffff81111561086f5761086e610832565b5b60208301915083600182028301111561088b5761088a610837565b5b9250929050565b600080602083850312156108a9576108a8610823565b5b600083013567ffffffffffffffff8111156108c7576108c6610828565b5b6108d38582860161083c565b92509250509250929050565b7f4e487b7100000000000000000000000000000000000000000000000000000000600052602260045260246000fd5b6000600282049050600182168061092657607f821691505b602082108103610939576109386108df565b5b50919050565b600082825260208201905092915050565b7f4d6573736167652063616e6e6f7420626520656d707479000000000000000000600082015250565b600061098660178361093f565b915061099182610950565b602082019050919050565b600060208201905081810360008301526109b581610979565b9050919050565b7f4d65737361676520657863656564732032383020636861726163746572730000600082015250565b60006109f2601e8361093f565b91506109fd826109bc565b602082019050919050565b60006020820190508181036000830152610a21816109e5565b9050919050565b610a3181610657565b82525050565b6000602082019050610a4c6000830184610a28565b92915050565b610a5b8161054e565b8114610a6657600080fd5b50565b600081519050610a7881610a52565b92915050565b600060208284031215610a9457610a93610823565b5b6000610aa284828501610a69565b91505092915050565b7f4d75737420686f6c6420616e204f4720526174204e465420746f20706f737400600082015250565b6000610ae1601f8361093f565b9150610aec82610aab565b602082019050919050565b60006020820190508181036000830152610b1081610ad4565b9050919050565b7f4e487b7100000000000000000000000000000000000000000000000000000000600052604160045260246000fd5b60008190508160005260206000209050919050565b60006020601f8301049050919050565b600082821b905092915050565b600060088302610ba87fffffffffffffffffffffffffffffffffffffffffffffffffffffffffffffffff82610b6b565b610bb28683610b6b565b95508019841693508086168417925050509392505050565b6000610be5610be0610bdb8461054e565b6105a2565b61054e565b9050919050565b6000819050919050565b610bff83610bca565b610c13610c0b82610bec565b848454610b78565b825550505050565b600090565b610c28610c1b565b610c33818484610bf6565b505050565b5b81811015610c5757610c4c600082610c20565b600181019050610c39565b5050565b601f821115610c9c57610c6d81610b46565b610c7684610b5b565b81016020851015610c85578190505b610c99610c9185610b5b565b830182610c38565b50505b505050565b600082821c905092915050565b6000610cbf60001984600802610ca1565b1980831691505092915050565b6000610cd88383610cae565b9150826002028217905092915050565b610cf182610678565b67ffffffffffffffff811115610d0a57610d09610b17565b5b610d14825461090e565b610d1f828285610c5b565b600060209050601f831160018114610d525760008415610d40578287015190505b610d4a8582610ccc565b865550610db2565b601f198416610d6086610b46565b60005b82811015610d8857848901518255600182019150602085019450602081019050610d63565b86831015610da55784890151610da1601f891682610cae565b8355505b6001600288020188555050505b505050505050565b82818337600083830152505050565b6000610dd5838561093f565b9350610de2838584610dba565b610deb836106be565b840190509392505050565b60006040820190508181036000830152610e11818587610dc9565b9050610e206020830184610558565b949350505050565b7f4e487b7100000000000000000000000000000000000000000000000000000000600052601160045260246000fd5b6000610e628261054e565b91507fffffffffffffffffffffffffffffffffffffffffffffffffffffffffffffffff8203610e9457610e93610e28565b5b60018201905091905056fea26469706673582212206c54407ec9f2d979467ed289c7c2027793d781849d0b4b68da500f4073dfaad364736f6c63430008140033",
  "linkReferences": {},
  "deployedLinkReferences": {}
}