{
  "_format": "hh-sol-artifact-1",
  "contractName": "OGRatsWall",
  "sourceName": "contracts/OGRatsWall.sol",
  "abi": [
    {
      "inputs": [
        {
          "internalType": "address",
          "name": "_ogRatsNFTAddress",
          "type": "address"
        }
      ],
      "stateMutability": "nonpayable",
      "type": "constructor"
    },
    {
      "anonymous": false,
      "inputs": [
        {
          "indexed": true,
          "internalType": "uint256",
          "name": "id",
          "type": "uint256"
        },
        {
          "indexed": true,
          "internalType": "address",
          "name": "sender",
          "type": "address"
        },
        {
          "indexed": false,
          "internalType": "string",
          "name": "message",
          "type": "string"
        },
        {
          "indexed": false,
          "internalType": "uint256",
          "name": "timestamp",
          "type": "uint256"
        }
      ],
      "name": "MessagePosted",
      "type": "event"
    },
    {
      "inputs": [],
      "name": "getMessages",
      "outputs": [
        {
          "components": [
            {
              "internalType": "uint256",
              "name": "id",
              "type": "uint256"
            },
            {
              "internalType": "address",
              "name": "sender",
              "type": "address"
            },
            {
              "internalType": "string",
              "name": "message",
              "type": "string"
            },
            {
              "internalType": "uint256",
              "name": "timestamp",
              "type": "uint256"
            }
          ],
          "internalType": "struct OGRatsWall.Message[]",
          "name": "",
          "type": "tuple[]"
        }
      ],
      "stateMutability": "view",
      "type": "function"
    },
    {
      "inputs": [],
      "name": "getTotalMessages",
      "outputs": [
        {
          "internalType": "uint256",
          "name": "",
          "type": "uint256"
        }
      ],
      "stateMutability": "view",
      "type": "function"
    },
    {
      "inputs": [],
      "name": "ogRatsNFT",
      "outputs": [
        {
          "internalType": "contract IERC721",
          "name": "",
          "type": "address"
        }
      ],
      "stateMutability": "view",
      "type": "function"
    },
    {
      "inputs": [
        {
          "internalType": "string",
          "name": "_message",
          "type": "string"
        }
      ],
      "name": "postMessage",
      "outputs": [],
      "stateMutability": "nonpayable",
      "type": "function"
    }
  ],
  "bytecode": "0x60a06040523480156200001157600080fd5b5060405162000f2838038062000f2883398181016040528101906200003791906200014e565b600073ffffffffffffffffffffffffffffffffffffffff168173ffffffffffffffffffffffffffffffffffffffff1603620000a9576040517f08c379a0000000000000000000000000000000000000000000000000000000008152600401620000a090620001e1565b60405180910390fd5b8073ffffffffffffffffffffffffffffffffffffffff1660808173ffffffffffffffffffffffffffffffffffffffff16815250505062000203565b600080fd5b600073ffffffffffffffffffffffffffffffffffffffff82169050919050565b60006200011682620000e9565b9050919050565b620001288162000109565b81146200013457600080fd5b50565b60008151905062000148816200011d565b92915050565b600060208284031215620001675762000166620000e4565b5b6000620001778482850162000137565b91505092915050565b600082825260208201905092915050565b7f496e76616c6964204e4654206164647265737300000000000000000000000000600082015250565b6000620001c960138362000180565b9150620001d68262000191565b602082019050919050565b60006020820190508181036000830152620001fc81620001ba565b9050919050565b608051610d0a6200021e600039600060d50152610d0a6000f3fe608060405234801561001057600080fd5b506004361061004c5760003560e01c8063147e91081461005157806316f45b9d1461006f5780635ff6cbf31461008d5780636630f88f146100ab575b600080fd5b6100596100c7565b604051610066919061048b565b60405180910390f35b6100776100d3565b6040516100849190610525565b60405180910390f35b6100956100f7565b6040516100a29190610725565b60405180910390f35b6100c560048036038101906100c091906107b6565b610252565b005b60008080549050905090565b7f000000000000000000000000000000000000000000000000000000000000000081565b60606000805480602002602001604051908101604052809291908181526020016000905b828210156102495783829060005260206000209060040201604051806080016040529081600082015481526020016001820160009054906101000a900473ffffffffffffffffffffffffffffffffffffffff1673ffffffffffffffffffffffffffffffffffffffff1673ffffffffffffffffffffffffffffffffffffffff1681526020016002820180546101ae90610832565b80601f01602080910402602001604051908101604052809291908181526020018280546101da90610832565b80156102275780601f106101fc57610100808354040283529160200191610227565b820191906000526020600020905b81548152906001019060200180831161020a57829003601f168201915b505050505081526020016003820154815250508152602001906001019061011b565b50505050905090565b60008282905011610298576040517f08c379a000000000000000000000000000000000000000000000000000000000815260040161028f906108c0565b60405180910390fd5b6101188282905011156102e0576040517f08c379a00000000000000000000000000000000000000000000000000000000081526004016102d79061092c565b60405180910390fd5b6000604051806080016040528060015481526020013373ffffffffffffffffffffffffffffffffffffffff16815260200184848080601f016020809104026020016040519081016040528093929190818152602001838380828437600081840152601f19601f82011690508083019250505050505050815260200142815250905060008190806001815401808255809150506001900390600052602060002090600402016000909190919091506000820151816000015560208201518160010160006101000a81548173ffffffffffffffffffffffffffffffffffffffff021916908373ffffffffffffffffffffffffffffffffffffffff16021790555060408201518160020190816103f39190610b1d565b506060820151816003015550503373ffffffffffffffffffffffffffffffffffffffff166001547f7513fc6c2eeb2183417112a7961c7bf7a50939d641eca9a16e5e23e03462b17185854260405161044d93929190610c2b565b60405180910390a36001600081548092919061046890610c8c565b9190505550505050565b6000819050919050565b61048581610472565b82525050565b60006020820190506104a0600083018461047c565b92915050565b600073ffffffffffffffffffffffffffffffffffffffff82169050919050565b6000819050919050565b60006104eb6104e66104e1846104a6565b6104c6565b6104a6565b9050919050565b60006104fd826104d0565b9050919050565b600061050f826104f2565b9050919050565b61051f81610504565b82525050565b600060208201905061053a6000830184610516565b92915050565b600081519050919050565b600082825260208201905092915050565b6000819050602082019050919050565b61057581610472565b82525050565b6000610586826104a6565b9050919050565b6105968161057b565b82525050565b600081519050919050565b600082825260208201905092915050565b60005b838110156105d65780820151818401526020810190506105bb565b60008484015250505050565b6000601f19601f8301169050919050565b60006105fe8261059c565b61060881856105a7565b93506106188185602086016105b8565b610621816105e2565b840191505092915050565b6000608083016000830151610644600086018261056c565b506020830151610657602086018261058d565b506040830151848203604086015261066f82826105f3565b9150506060830151610684606086018261056c565b508091505092915050565b600061069b838361062c565b905092915050565b6000602082019050919050565b60006106bb82610540565b6106c5818561054b565b9350836020820285016106d78561055c565b8060005b8581101561071357848403895281516106f4858261068f565b94506106ff836106a3565b925060208a019950506001810190506106db565b50829750879550505050505092915050565b6000602082019050818103600083015261073f81846106b0565b905092915050565b600080fd5b600080fd5b600080fd5b600080fd5b600080fd5b60008083601f84011261077657610775610751565b5b8235905067ffffffffffffffff81111561079357610792610756565b5b6020830191508360018202830111156107af576107ae61075b565b5b9250929050565b600080602083850312156107cd576107cc610747565b5b600083013567ffffffffffffffff8111156107eb576107ea61074c565b5b6107f785828601610760565b92509250509250929050565b7f4e487b7100000000000000000000000000000000000000000000000000000000600052602260045260246000fd5b6000600282049050600182168061084a57607f821691505b60208210810361085d5761085c610803565b5b50919050565b600082825260208201905092915050565b7f4d6573736167652063616e6e6f7420626520656d707479000000000000000000600082015250565b60006108aa601783610863565b91506108b582610874565b602082019050919050565b600060208201905081810360008301526108d98161089d565b9050919050565b7f4d65737361676520657863656564732032383020636861726163746572730000600082015250565b6000610916601e83610863565b9150610921826108e0565b602082019050919050565b6000602082019050818103600083015261094581610909565b9050919050565b7f4e487b7100000000000000000000000000000000000000000000000000000000600052604160045260246000fd5b60008190508160005260206000209050919050565b60006020601f8301049050919050565b600082821b905092915050565b6000600883026109dd7fffffffffffffffffffffffffffffffffffffffffffffffffffffffffffffffff826109a0565b6109e786836109a0565b95508019841693508086168417925050509392505050565b6000610a1a610a15610a1084610472565b6104c6565b610472565b9050919050565b6000819050919050565b610a34836109ff565b610a48610a4082610a21565b8484546109ad565b825550505050565b600090565b610a5d610a50565b610a68818484610a2b565b505050565b5b81811015610a8c57610a81600082610a55565b600181019050610a6e565b5050565b601f821115610ad157610aa28161097b565b610aab84610990565b81016020851015610aba578190505b610ace610ac685610990565b830182610a6d565b50505b505050565b600082821c905092915050565b6000610af460001984600802610ad6565b1980831691505092915050565b6000610b0d8383610ae3565b9150826002028217905092915050565b610b268261059c565b67ffffffffffffffff811115610b3f57610b3e61094c565b5b610b498254610832565b610b54828285610a90565b600060209050601f831160018114610b875760008415610b75578287015190505b610b7f8582610b01565b865550610be7565b601f198416610b958661097b565b60005b82811015610bbd57848901518255600182019150602085019450602081019050610b98565b86831015610bda5784890151610bd6601f891682610ae3565b8355505b6001600288020188555050505b505050505050565b82818337600083830152505050565b6000610c0a8385610863565b9350610c17838584610bef565b610c20836105e2565b840190509392505050565b60006040820190508181036000830152610c46818587610bfe565b9050610c55602083018461047c565b949350505050565b7f4e487b7100000000000000000000000000000000000000000000000000000000600052601160045260246000fd5b6000610c9782610472565b91507fffffffffffffffffffffffffffffffffffffffffffffffffffffffffffffffff8203610cc957610cc8610c5d565b5b60018201905091905056fea2646970667358221220bfb78abb94082ffeb875aabd64bca28c67b403eed911abd7c91e4ee8390c156664736f6c63430008140033",
  "linkReferences": {},
  "deployedLinkReferences": {}
}